{
  "abi": [
    {
      "inputs": [
        {
          "internalType": "address",
          "name": "_usdt",
          "type": "address"
        },
        {
          "internalType": "address",
          "name": "_locker",
          "type": "address"
        }
      ],
      "stateMutability": "nonpayable",
      "type": "constructor"
    },
    {
      "anonymous": false,
      "inputs": [
        {
          "indexed": true,
          "internalType": "address",
          "name": "owner",
          "type": "address"
        },
        {
          "indexed": true,
          "internalType": "address",
          "name": "spender",
          "type": "address"
        },
        {
          "indexed": false,
          "internalType": "uint256",
          "name": "value",
          "type": "uint256"
        }
      ],
      "name": "Approval",
      "type": "event"
    },
    {
      "anonymous": false,
      "inputs": [
        {
          "indexed": true,
          "internalType": "address",
          "name": "reciever",
          "type": "address"
        },
        {
          "indexed": false,
          "internalType": "uint256",
          "name": "cost_in_usd",
          "type": "uint256"
        },
        {
          "indexed": false,
          "internalType": "uint256",
          "name": "qd_amt",
          "type": "uint256"
        }
      ],
      "name": "Mint",
      "type": "event"
    },
    {
      "anonymous": false,
      "inputs": [
        {
          "indexed": true,
          "internalType": "address",
          "name": "previousOwner",
          "type": "address"
        },
        {
          "indexed": true,
          "internalType": "address",
          "name": "newOwner",
          "type": "address"
        }
      ],
      "name": "OwnershipTransferred",
      "type": "event"
    },
    {
      "anonymous": false,
      "inputs": [
        {
          "indexed": true,
          "internalType": "address",
          "name": "from",
          "type": "address"
        },
        {
          "indexed": true,
          "internalType": "address",
          "name": "to",
          "type": "address"
        },
        {
          "indexed": false,
          "internalType": "uint256",
          "name": "value",
          "type": "uint256"
        }
      ],
      "name": "Transfer",
      "type": "event"
    },
    {
      "inputs": [],
      "name": "MINT_QD_PER_DAY_MAX",
      "outputs": [
        {
          "internalType": "uint256",
          "name": "",
          "type": "uint256"
        }
      ],
      "stateMutability": "view",
      "type": "function"
    },
    {
      "inputs": [],
      "name": "PRICE_PRECISION",
      "outputs": [
        {
          "internalType": "uint256",
          "name": "",
          "type": "uint256"
        }
      ],
      "stateMutability": "view",
      "type": "function"
    },
    {
      "inputs": [],
      "name": "SALE_LENGTH",
      "outputs": [
        {
          "internalType": "uint256",
          "name": "",
          "type": "uint256"
        }
      ],
      "stateMutability": "view",
      "type": "function"
    },
    {
      "inputs": [],
      "name": "SALE_START",
      "outputs": [
        {
          "internalType": "uint256",
          "name": "",
          "type": "uint256"
        }
      ],
      "stateMutability": "view",
      "type": "function"
    },
    {
      "inputs": [],
      "name": "UA",
      "outputs": [
        {
          "internalType": "address",
          "name": "",
          "type": "address"
        }
      ],
      "stateMutability": "view",
      "type": "function"
    },
    {
      "inputs": [
        {
          "internalType": "address",
          "name": "owner",
          "type": "address"
        },
        {
          "internalType": "address",
          "name": "spender",
          "type": "address"
        }
      ],
      "name": "allowance",
      "outputs": [
        {
          "internalType": "uint256",
          "name": "",
          "type": "uint256"
        }
      ],
      "stateMutability": "view",
      "type": "function"
    },
    {
      "inputs": [
        {
          "internalType": "address",
          "name": "spender",
          "type": "address"
        },
        {
          "internalType": "uint256",
          "name": "amount",
          "type": "uint256"
        }
      ],
      "name": "approve",
      "outputs": [
        {
          "internalType": "bool",
          "name": "",
          "type": "bool"
        }
      ],
      "stateMutability": "nonpayable",
      "type": "function"
    },
    {
      "inputs": [
        {
          "internalType": "address",
          "name": "account",
          "type": "address"
        }
      ],
      "name": "balanceOf",
      "outputs": [
        {
          "internalType": "uint256",
          "name": "",
          "type": "uint256"
        }
      ],
      "stateMutability": "view",
      "type": "function"
    },
    {
      "inputs": [
        {
          "internalType": "uint256",
          "name": "block_timestamp",
          "type": "uint256"
        }
      ],
      "name": "calculate_price",
      "outputs": [
        {
          "internalType": "uint256",
          "name": "price",
          "type": "uint256"
        }
      ],
      "stateMutability": "pure",
      "type": "function"
    },
    {
      "inputs": [],
      "name": "decimals",
      "outputs": [
        {
          "internalType": "uint8",
          "name": "",
          "type": "uint8"
        }
      ],
      "stateMutability": "pure",
      "type": "function"
    },
    {
      "inputs": [
        {
          "internalType": "address",
          "name": "spender",
          "type": "address"
        },
        {
          "internalType": "uint256",
          "name": "subtractedValue",
          "type": "uint256"
        }
      ],
      "name": "decreaseAllowance",
      "outputs": [
        {
          "internalType": "bool",
          "name": "",
          "type": "bool"
        }
      ],
      "stateMutability": "nonpayable",
      "type": "function"
    },
    {
      "inputs": [],
      "name": "final_price",
      "outputs": [
        {
          "internalType": "uint256",
          "name": "",
          "type": "uint256"
        }
      ],
      "stateMutability": "view",
      "type": "function"
    },
    {
      "inputs": [
        {
          "internalType": "uint256",
          "name": "block_timestamp",
          "type": "uint256"
        }
      ],
      "name": "get_total_supply_cap",
      "outputs": [
        {
          "internalType": "uint256",
          "name": "total_supply_cap",
          "type": "uint256"
        }
      ],
      "stateMutability": "pure",
      "type": "function"
    },
    {
      "inputs": [
        {
          "internalType": "address",
          "name": "spender",
          "type": "address"
        },
        {
          "internalType": "uint256",
          "name": "addedValue",
          "type": "uint256"
        }
      ],
      "name": "increaseAllowance",
      "outputs": [
        {
          "internalType": "bool",
          "name": "",
          "type": "bool"
        }
      ],
      "stateMutability": "nonpayable",
      "type": "function"
    },
    {
      "inputs": [],
      "name": "lockyer",
      "outputs": [
        {
          "internalType": "address",
          "name": "",
          "type": "address"
        }
      ],
      "stateMutability": "view",
      "type": "function"
    },
    {
      "inputs": [
        {
          "internalType": "uint256",
          "name": "qd_amt",
          "type": "uint256"
        },
        {
          "internalType": "address",
          "name": "beneficiary",
          "type": "address"
        }
      ],
      "name": "mint",
      "outputs": [
        {
          "internalType": "uint256",
          "name": "cost_in_usdt",
          "type": "uint256"
        },
        {
          "internalType": "uint256",
          "name": "aid",
          "type": "uint256"
        }
      ],
      "stateMutability": "nonpayable",
      "type": "function"
    },
    {
      "inputs": [],
      "name": "name",
      "outputs": [
        {
          "internalType": "string",
          "name": "",
          "type": "string"
        }
      ],
      "stateMutability": "view",
      "type": "function"
    },
    {
      "inputs": [],
      "name": "owner",
      "outputs": [
        {
          "internalType": "address",
          "name": "",
          "type": "address"
        }
      ],
      "stateMutability": "view",
      "type": "function"
    },
    {
      "inputs": [],
      "name": "pie",
      "outputs": [
        {
          "internalType": "uint256",
          "name": "",
          "type": "uint256"
        }
      ],
      "stateMutability": "view",
      "type": "function"
    },
    {
      "inputs": [],
      "name": "private_deposited",
      "outputs": [
        {
          "internalType": "uint256",
          "name": "",
          "type": "uint256"
        }
      ],
      "stateMutability": "view",
      "type": "function"
    },
    {
      "inputs": [],
      "name": "private_minted",
      "outputs": [
        {
          "internalType": "uint256",
          "name": "",
          "type": "uint256"
        }
      ],
      "stateMutability": "view",
      "type": "function"
    },
    {
      "inputs": [],
      "name": "private_price",
      "outputs": [
        {
          "internalType": "uint256",
          "name": "",
          "type": "uint256"
        }
      ],
      "stateMutability": "view",
      "type": "function"
    },
    {
      "inputs": [],
      "name": "public_deposited",
      "outputs": [
        {
          "internalType": "uint256",
          "name": "",
          "type": "uint256"
        }
      ],
      "stateMutability": "view",
      "type": "function"
    },
    {
      "inputs": [
        {
          "internalType": "uint256",
          "name": "qd_amt",
          "type": "uint256"
        },
        {
          "internalType": "uint256",
          "name": "block_timestamp",
          "type": "uint256"
        }
      ],
      "name": "qd_amt_to_usdt_amt",
      "outputs": [
        {
          "internalType": "uint256",
          "name": "usdt_amount",
          "type": "uint256"
        }
      ],
      "stateMutability": "pure",
      "type": "function"
    },
    {
      "inputs": [],
      "name": "renounceOwnership",
      "outputs": [],
      "stateMutability": "nonpayable",
      "type": "function"
    },
    {
      "inputs": [],
      "name": "start_price",
      "outputs": [
        {
          "internalType": "uint256",
          "name": "",
          "type": "uint256"
        }
      ],
      "stateMutability": "view",
      "type": "function"
    },
    {
      "inputs": [],
      "name": "symbol",
      "outputs": [
        {
          "internalType": "string",
          "name": "",
          "type": "string"
        }
      ],
      "stateMutability": "view",
      "type": "function"
    },
    {
      "inputs": [],
      "name": "tether",
      "outputs": [
        {
          "internalType": "address",
          "name": "",
          "type": "address"
        }
      ],
      "stateMutability": "view",
      "type": "function"
    },
    {
      "inputs": [],
      "name": "totalSupply",
      "outputs": [
        {
          "internalType": "uint256",
          "name": "",
          "type": "uint256"
        }
      ],
      "stateMutability": "view",
      "type": "function"
    },
    {
      "inputs": [
        {
          "internalType": "address",
          "name": "to",
          "type": "address"
        },
        {
          "internalType": "uint256",
          "name": "amount",
          "type": "uint256"
        }
      ],
      "name": "transfer",
      "outputs": [
        {
          "internalType": "bool",
          "name": "",
          "type": "bool"
        }
      ],
      "stateMutability": "nonpayable",
      "type": "function"
    },
    {
      "inputs": [
        {
          "internalType": "address",
          "name": "from",
          "type": "address"
        },
        {
          "internalType": "address",
          "name": "to",
          "type": "address"
        },
        {
          "internalType": "uint256",
          "name": "amount",
          "type": "uint256"
        }
      ],
      "name": "transferFrom",
      "outputs": [
        {
          "internalType": "bool",
          "name": "",
          "type": "bool"
        }
      ],
      "stateMutability": "nonpayable",
      "type": "function"
    },
    {
      "inputs": [
        {
          "internalType": "address",
          "name": "newOwner",
          "type": "address"
        }
      ],
      "name": "transferOwnership",
      "outputs": [],
      "stateMutability": "nonpayable",
      "type": "function"
    },
    {
      "inputs": [],
      "name": "withdraw",
      "outputs": [],
      "stateMutability": "nonpayable",
      "type": "function"
    }
  ],
  "bytecode": "60c060405260646200001b670de0b6b3a7640000600662000399565b62000027919062000378565b6006553480156200003757600080fd5b5060405162001e8638038062001e868339810160408190526200005a9162000326565b60405180604001604052806004815260200163145d485160e21b81525060405180604001604052806002815260200161145160f21b815250620000ac620000a66200012760201b60201c565b6200012b565b8151620000c190600490602085019062000263565b508051620000d790600590602084019062000263565b5050506c22142ba7658b08825ee00000006002620000f6919062000399565b60095562000107336009546200017b565b6001600160601b0319606091821b811660805291901b1660a0526200040e565b3390565b600080546001600160a01b038381166001600160a01b0319831681178455604051919092169283917f8be0079c531659141344cd1fd0a4f28419497f9722a3daafe3b4186f6b6457e09190a35050565b6001600160a01b038216620001d65760405162461bcd60e51b815260206004820152601f60248201527f45524332303a206d696e7420746f20746865207a65726f206164647265737300604482015260640160405180910390fd5b8060036000828254620001ea91906200035d565b90915550506001600160a01b03821660009081526001602052604081208054839290620002199084906200035d565b90915550506040518181526001600160a01b038316906000907fddf252ad1be2c89b69c2b068fc378daa952ba7f163c4a11628f55a4df523b3ef9060200160405180910390a35050565b8280546200027190620003bb565b90600052602060002090601f016020900481019282620002955760008555620002e0565b82601f10620002b057805160ff1916838001178555620002e0565b82800160010185558215620002e0579182015b82811115620002e0578251825591602001919060010190620002c3565b50620002ee929150620002f2565b5090565b5b80821115620002ee5760008155600101620002f3565b80516001600160a01b03811681146200032157600080fd5b919050565b6000806040838503121562000339578182fd5b620003448362000309565b9150620003546020840162000309565b90509250929050565b60008219821115620003735762000373620003f8565b500190565b6000826200039457634e487b7160e01b81526012600452602481fd5b500490565b6000816000190483118215151615620003b657620003b6620003f8565b500290565b600181811c90821680620003d057607f821691505b60208210811415620003f257634e487b7160e01b600052602260045260246000fd5b50919050565b634e487b7160e01b600052601160045260246000fd5b60805160601c60a05160601c611a1b6200046b600039600081816102ca0152818161064b01528181610721015281816107ff01528181610bbc0152610bff0152600081816103130152818161067801526107710152611a1b6000f3fe608060405234801561001057600080fd5b50600436106101fb5760003560e01c8063834d026c1161011a578063a457c2d7116100ad578063c52e8c411161007c578063c52e8c4114610411578063d47823831461042c578063dd62ed3e14610435578063f2fde38b1461046e578063f7a3e04914610481576101fb565b8063a457c2d7146103d9578063a9059cbb146103ec578063bbc56cc8146103ff578063bf2b52bf14610409576101fb565b806394bf804d116100e957806394bf804d1461038757806395082d25146103af57806395d89b41146103be57806398b9cc6e146103c6576101fb565b8063834d026c146103505780638a95a746146103595780638bea5be41461036d5780638da5cb5b14610376576101fb565b80633950935111610192578063676e4cba11610161578063676e4cba1461030457806367f757261461030e57806370a0823114610335578063715018a614610348576101fb565b8063395093511461029f5780633ccfd60b146102b25780635796f10b146102bc5780635efc071a146102c5576101fb565b806322673030116101ce578063226730301461025f57806323b872dd1461026a578063313ce5671461027d578063367e1c3e1461028c576101fb565b806306fdde031461020057806308b309e31461021e578063095ea7b31461023457806318160ddd14610257575b600080fd5b610208610494565b60405161021591906117b3565b60405180910390f35b610226610526565b604051908152602001610215565b6102476102423660046116f3565b610548565b6040519015158152602001610215565b600354610226565b610226636231288081565b6102476102783660046116b8565b610560565b60405160188152602001610215565b61022661029a36600461173c565b610586565b6102476102ad3660046116f3565b6105cb565b6102ba61060a565b005b61022660065481565b6102ec7f000000000000000000000000000000000000000000000000000000000000000081565b6040516001600160a01b039091168152602001610215565b6102266207a12081565b6102ec7f000000000000000000000000000000000000000000000000000000000000000081565b61022661034336600461166c565b61082e565b6102ba61084d565b61022660085481565b6102266c22142ba7658b08825ee000000081565b61022660095481565b6000546001600160a01b03166102ec565b61039a610395366004611754565b6108b6565b60408051928352602083019190915201610215565b610226670de0b6b3a764000081565b610208610c85565b6102266103d4366004611776565b610c94565b6102476103e73660046116f3565b610cf4565b6102476103fa3660046116f3565b610d91565b6102266247310081565b610226610d9f565b6102ec73165cd37b4c644c2921454429e7f9358d18a45e1481565b61022660075481565b610226610443366004611686565b6001600160a01b03918216600090815260026020908152604080832093909416825291909152205490565b6102ba61047c36600461166c565b610db4565b61022661048f36600461173c565b610e7f565b6060600480546104a390611994565b80601f01602080910402602001604051908101604052809291908181526020018280546104cf90611994565b801561051c5780601f106104f15761010080835404028352916020019161051c565b820191906000526020600020905b8154815290600101906020018083116104ff57829003601f168201915b5050505050905090565b606461053b670de0b6b3a76400006060611932565b61054591906117fe565b81565b600033610556818585610f1c565b5060019392505050565b60003361056e858285611040565b6105798585856110d2565b60019150505b9392505050565b600080610597636231288084611951565b905062015180816105aa6018600a611864565b6105b7906207a120611932565b6105c19190611932565b61057f91906117fe565b3360008181526002602090815260408083206001600160a01b038716845290915281205490919061055690829086906106059087906117e6565b610f1c565b600060085411801561062c57506106286247310063623128806117e6565b4210155b156107d55760085460405163095ea7b360e01b81526001600160a01b037f0000000000000000000000000000000000000000000000000000000000000000169163095ea7b3916106b4917f0000000000000000000000000000000000000000000000000000000000000000916004016001600160a01b03929092168252602082015260400190565b602060405180830381600087803b1580156106ce57600080fd5b505af11580156106e2573d6000803e3d6000fd5b505050506040513d601f19601f82011682018060405250810190610706919061171c565b50600854604051630889bfe760e01b81526001600160a01b037f000000000000000000000000000000000000000000000000000000000000000081166004830152602482019290925260606044820152600960648201526838bab4b2173732b0b960b91b60848201527f000000000000000000000000000000000000000000000000000000000000000090911690630889bfe79060a401600060405180830381600087803b1580156107b757600080fd5b505af11580156107cb573d6000803e3d6000fd5b5050600060085550505b6007541561082c576108266107f26000546001600160a01b031690565b6007546001600160a01b037f00000000000000000000000000000000000000000000000000000000000000001691906112a0565b60006007555b565b6001600160a01b0381166000908152600160205260409020545b919050565b6000546001600160a01b031633146108ac5760405162461bcd60e51b815260206004820181905260248201527f4f776e61626c653a2063616c6c6572206973206e6f7420746865206f776e657260448201526064015b60405180910390fd5b61082c6000611308565b6000806108cb6000546001600160a01b031690565b6001600160a01b0316336001600160a01b03161415610a6c576c22142ba7658b08825ee000000084146109405760405162461bcd60e51b815260206004820152601760248201527f57726f6e6720514420616d6f756e7420656e746572656400000000000000000060448201526064016108a3565b6064610955670de0b6b3a76400006016611932565b61095f91906117fe565b600654106109af5760405162461bcd60e51b815260206004820152601760248201527f43616e277420616c6c6f6361746520616e79206d6f726500000000000000000060448201526064016108a3565b6109bb6018600a611864565b670de0b6b3a76400006006546006600a6109d59190611864565b6109df9088611932565b6109e99190611932565b6109f391906117fe565b6109fd91906117fe565b91506064610a14670de0b6b3a76400006002611932565b610a1e91906117fe565b60066000828254610a2f91906117e6565b925050819055508160076000828254610a4891906117e6565b925050819055508360096000828254610a6191906117e6565b90915550610bad9050565b6a52b7d2dcc80cd2e4000000841015610ab55760405162461bcd60e51b815260206004820152600b60248201526a51443a204d494e545f523160a81b60448201526064016108a3565b63623128804210158015610ad85750610ad56247310063623128806117e6565b42105b610b125760405162461bcd60e51b815260206004820152600b60248201526a28a21d1026a4a72a2fa91960a91b60448201526064016108a3565b610b1b42610586565b600954600354610b2b9190611951565b1115610b675760405162461bcd60e51b815260206004820152600b60248201526a51443a204d494e545f523360a81b60448201526064016108a3565b610b718442610c94565b91506064610b80836016611932565b610b8a91906117fe565b9050610b968183611951565b60086000828254610ba791906117e6565b90915550505b610bb78385611358565b610bec7f00000000000000000000000000000000000000000000000000000000000000006001600160a01b0316333085611437565b8015610c3a57610c3a6001600160a01b037f00000000000000000000000000000000000000000000000000000000000000001673165cd37b4c644c2921454429e7f9358d18a45e14836112a0565b60408051838152602081018690526001600160a01b038516917f4c209b5fc8ad50758f13e2e1088ba56a560dff690a1c6fef26394f4c03821c4f910160405180910390a29250929050565b6060600580546104a390611994565b600080610ca083610e7f565b9050610cae6018600a611864565b670de0b6b3a764000082610cc46006600a611864565b610cce9088611932565b610cd89190611932565b610ce291906117fe565b610cec91906117fe565b949350505050565b3360008181526002602090815260408083206001600160a01b038716845290915281205490919083811015610d795760405162461bcd60e51b815260206004820152602560248201527f45524332303a2064656372656173656420616c6c6f77616e63652062656c6f77604482015264207a65726f60d81b60648201526084016108a3565b610d868286868403610f1c565b506001949350505050565b6000336105568185856110d2565b606461053b670de0b6b3a76400006016611932565b6000546001600160a01b03163314610e0e5760405162461bcd60e51b815260206004820181905260248201527f4f776e61626c653a2063616c6c6572206973206e6f7420746865206f776e657260448201526064016108a3565b6001600160a01b038116610e735760405162461bcd60e51b815260206004820152602660248201527f4f776e61626c653a206e6577206f776e657220697320746865207a65726f206160448201526564647265737360d01b60648201526084016108a3565b610e7c81611308565b50565b600080610e90636231288084611951565b90506064610ea7670de0b6b3a76400006016611932565b610eb191906117fe565b62473100826064610ecb670de0b6b3a76400006016611932565b610ed591906117fe565b6064610eea670de0b6b3a76400006060611932565b610ef491906117fe565b610efe9190611951565b610f089190611932565b610f1291906117fe565b61057f91906117e6565b6001600160a01b038316610f7e5760405162461bcd60e51b8152602060048201526024808201527f45524332303a20617070726f76652066726f6d20746865207a65726f206164646044820152637265737360e01b60648201526084016108a3565b6001600160a01b038216610fdf5760405162461bcd60e51b815260206004820152602260248201527f45524332303a20617070726f766520746f20746865207a65726f206164647265604482015261737360f01b60648201526084016108a3565b6001600160a01b0383811660008181526002602090815260408083209487168084529482529182902085905590518481527f8c5be1e5ebec7d5bd14f71427d1e84f3dd0314c0f7b2291e5b200ac8c7c3b925910160405180910390a3505050565b6001600160a01b0383811660009081526002602090815260408083209386168352929052205460001981146110cc57818110156110bf5760405162461bcd60e51b815260206004820152601d60248201527f45524332303a20696e73756666696369656e7420616c6c6f77616e636500000060448201526064016108a3565b6110cc8484848403610f1c565b50505050565b6001600160a01b0383166111365760405162461bcd60e51b815260206004820152602560248201527f45524332303a207472616e736665722066726f6d20746865207a65726f206164604482015264647265737360d81b60648201526084016108a3565b6001600160a01b0382166111985760405162461bcd60e51b815260206004820152602360248201527f45524332303a207472616e7366657220746f20746865207a65726f206164647260448201526265737360e81b60648201526084016108a3565b6001600160a01b038316600090815260016020526040902054818110156112105760405162461bcd60e51b815260206004820152602660248201527f45524332303a207472616e7366657220616d6f756e7420657863656564732062604482015265616c616e636560d01b60648201526084016108a3565b6001600160a01b038085166000908152600160205260408082208585039055918516815290812080548492906112479084906117e6565b92505081905550826001600160a01b0316846001600160a01b03167fddf252ad1be2c89b69c2b068fc378daa952ba7f163c4a11628f55a4df523b3ef8460405161129391815260200190565b60405180910390a36110cc565b6040516001600160a01b03831660248201526044810182905261130390849063a9059cbb60e01b906064015b60408051601f198184030181529190526020810180516001600160e01b03166001600160e01b03199093169290921790915261146f565b505050565b600080546001600160a01b038381166001600160a01b0319831681178455604051919092169283917f8be0079c531659141344cd1fd0a4f28419497f9722a3daafe3b4186f6b6457e09190a35050565b6001600160a01b0382166113ae5760405162461bcd60e51b815260206004820152601f60248201527f45524332303a206d696e7420746f20746865207a65726f20616464726573730060448201526064016108a3565b80600360008282546113c091906117e6565b90915550506001600160a01b038216600090815260016020526040812080548392906113ed9084906117e6565b90915550506040518181526001600160a01b038316906000907fddf252ad1be2c89b69c2b068fc378daa952ba7f163c4a11628f55a4df523b3ef9060200160405180910390a35050565b6040516001600160a01b03808516602483015283166044820152606481018290526110cc9085906323b872dd60e01b906084016112cc565b60006114c4826040518060400160405280602081526020017f5361666545524332303a206c6f772d6c6576656c2063616c6c206661696c6564815250856001600160a01b03166115419092919063ffffffff16565b80519091501561130357808060200190518101906114e2919061171c565b6113035760405162461bcd60e51b815260206004820152602a60248201527f5361666545524332303a204552433230206f7065726174696f6e20646964206e6044820152691bdd081cdd58d8d9595960b21b60648201526084016108a3565b6060610cec8484600085856001600160a01b0385163b6115a35760405162461bcd60e51b815260206004820152601d60248201527f416464726573733a2063616c6c20746f206e6f6e2d636f6e747261637400000060448201526064016108a3565b600080866001600160a01b031685876040516115bf9190611797565b60006040518083038185875af1925050503d80600081146115fc576040519150601f19603f3d011682016040523d82523d6000602084013e611601565b606091505b509150915061161182828661161c565b979650505050505050565b6060831561162b57508161057f565b82511561163b5782518084602001fd5b8160405162461bcd60e51b81526004016108a391906117b3565b80356001600160a01b038116811461084857600080fd5b60006020828403121561167d578081fd5b61057f82611655565b60008060408385031215611698578081fd5b6116a183611655565b91506116af60208401611655565b90509250929050565b6000806000606084860312156116cc578081fd5b6116d584611655565b92506116e360208501611655565b9150604084013590509250925092565b60008060408385031215611705578182fd5b61170e83611655565b946020939093013593505050565b60006020828403121561172d578081fd5b8151801515811461057f578182fd5b60006020828403121561174d578081fd5b5035919050565b60008060408385031215611766578182fd5b823591506116af60208401611655565b60008060408385031215611788578182fd5b50508035926020909101359150565b600082516117a9818460208701611968565b9190910192915050565b60006020825282518060208401526117d2816040850160208701611968565b601f01601f19169190910160400192915050565b600082198211156117f9576117f96119cf565b500190565b60008261181957634e487b7160e01b81526012600452602481fd5b500490565b80825b6001808611611830575061185b565b818704821115611842576118426119cf565b8086161561184f57918102915b9490941c938002611821565b94509492505050565b600061057f600019848460008261187d5750600161057f565b8161188a5750600061057f565b81600181146118a057600281146118aa576118d7565b600191505061057f565b60ff8411156118bb576118bb6119cf565b6001841b9150848211156118d1576118d16119cf565b5061057f565b5060208310610133831016604e8410600b841016171561190a575081810a83811115611905576119056119cf565b61057f565b611917848484600161181e565b808604821115611929576119296119cf565b02949350505050565b600081600019048311821515161561194c5761194c6119cf565b500290565b600082821015611963576119636119cf565b500390565b60005b8381101561198357818101518382015260200161196b565b838111156110cc5750506000910152565b600181811c908216806119a857607f821691505b602082108114156119c957634e487b7160e01b600052602260045260246000fd5b50919050565b634e487b7160e01b600052601160045260246000fdfea2646970667358221220b7e3b9f858f1eae49132d2b802bfb0aa3ec507eef0c18d842e4d31683bc9392164736f6c63430008030033",
  "bytecodeSha1": "fb425f026af07f7dc93b80a240b0ff52ba8828f2",
  "compiler": {
    "evm_version": "istanbul",
    "optimizer": {
      "enabled": true,
      "runs": 200
    },
    "version": "0.8.3+commit.8d00100c"
  },
  "contractName": "QD",
  "language": "Solidity",
  "natspec": {
    "kind": "dev",
    "methods": {
      "allowance(address,address)": {
        "details": "See {IERC20-allowance}."
      },
      "approve(address,uint256)": {
        "details": "See {IERC20-approve}. NOTE: If `amount` is the maximum `uint256`, the allowance is not updated on `transferFrom`. This is semantically equivalent to an infinite approval. Requirements: - `spender` cannot be the zero address."
      },
      "balanceOf(address)": {
        "details": "See {IERC20-balanceOf}."
      },
      "decimals()": {
        "details": "Returns the number of decimals used to get its user representation. For example, if `decimals` equals `2`, a balance of `505` tokens should be displayed to a user as `5.05` (`505 / 10 ** 2`). Tokens usually opt for a value of 18, imitating the relationship between Ether and Wei. This is the value {ERC20} uses, unless this function is overridden; NOTE: This information is only used for _display_ purposes: it in no way affects any of the arithmetic of the contract, including {IERC20-balanceOf} and {IERC20-transfer}."
      },
      "decreaseAllowance(address,uint256)": {
        "details": "Atomically decreases the allowance granted to `spender` by the caller. This is an alternative to {approve} that can be used as a mitigation for problems described in {IERC20-approve}. Emits an {Approval} event indicating the updated allowance. Requirements: - `spender` cannot be the zero address. - `spender` must have allowance for the caller of at least `subtractedValue`."
      },
      "increaseAllowance(address,uint256)": {
        "details": "Atomically increases the allowance granted to `spender` by the caller. This is an alternative to {approve} that can be used as a mitigation for problems described in {IERC20-approve}. Emits an {Approval} event indicating the updated allowance. Requirements: - `spender` cannot be the zero address."
      },
      "name()": {
        "details": "Returns the name of the token."
      },
      "owner()": {
        "details": "Returns the address of the current owner."
      },
      "renounceOwnership()": {
        "details": "Leaves the contract without owner. It will not be possible to call `onlyOwner` functions anymore. Can only be called by the current owner. NOTE: Renouncing ownership will leave the contract without an owner, thereby removing any functionality that is only available to the owner."
      },
      "symbol()": {
        "details": "Returns the symbol of the token, usually a shorter version of the name."
      },
      "totalSupply()": {
        "details": "See {IERC20-totalSupply}."
      },
      "transfer(address,uint256)": {
        "details": "See {IERC20-transfer}. Requirements: - `to` cannot be the zero address. - the caller must have a balance of at least `amount`."
      },
      "transferFrom(address,address,uint256)": {
        "details": "See {IERC20-transferFrom}. Emits an {Approval} event indicating the updated allowance. This is not required by the EIP. See the note at the beginning of {ERC20}. NOTE: Does not update the allowance if the current allowance is the maximum `uint256`. Requirements: - `from` and `to` cannot be the zero address. - `from` must have a balance of at least `amount`. - the caller must have allowance for ``from``'s tokens of at least `amount`."
      },
      "transferOwnership(address)": {
        "details": "Transfers ownership of the contract to a new account (`newOwner`). Can only be called by the current owner."
      }
    },
    "version": 1
  },
  "opcodes": "PUSH1 0x80 PUSH1 0x40 MSTORE CALLVALUE DUP1 ISZERO PUSH2 0x10 JUMPI PUSH1 0x0 DUP1 REVERT JUMPDEST POP PUSH1 0x4 CALLDATASIZE LT PUSH2 0x1FB JUMPI PUSH1 0x0 CALLDATALOAD PUSH1 0xE0 SHR DUP1 PUSH4 0x834D026C GT PUSH2 0x11A JUMPI DUP1 PUSH4 0xA457C2D7 GT PUSH2 0xAD JUMPI DUP1 PUSH4 0xC52E8C41 GT PUSH2 0x7C JUMPI DUP1 PUSH4 0xC52E8C41 EQ PUSH2 0x411 JUMPI DUP1 PUSH4 0xD4782383 EQ PUSH2 0x42C JUMPI DUP1 PUSH4 0xDD62ED3E EQ PUSH2 0x435 JUMPI DUP1 PUSH4 0xF2FDE38B EQ PUSH2 0x46E JUMPI DUP1 PUSH4 0xF7A3E049 EQ PUSH2 0x481 JUMPI PUSH2 0x1FB JUMP JUMPDEST DUP1 PUSH4 0xA457C2D7 EQ PUSH2 0x3D9 JUMPI DUP1 PUSH4 0xA9059CBB EQ PUSH2 0x3EC JUMPI DUP1 PUSH4 0xBBC56CC8 EQ PUSH2 0x3FF JUMPI DUP1 PUSH4 0xBF2B52BF EQ PUSH2 0x409 JUMPI PUSH2 0x1FB JUMP JUMPDEST DUP1 PUSH4 0x94BF804D GT PUSH2 0xE9 JUMPI DUP1 PUSH4 0x94BF804D EQ PUSH2 0x387 JUMPI DUP1 PUSH4 0x95082D25 EQ PUSH2 0x3AF JUMPI DUP1 PUSH4 0x95D89B41 EQ PUSH2 0x3BE JUMPI DUP1 PUSH4 0x98B9CC6E EQ PUSH2 0x3C6 JUMPI PUSH2 0x1FB JUMP JUMPDEST DUP1 PUSH4 0x834D026C EQ PUSH2 0x350 JUMPI DUP1 PUSH4 0x8A95A746 EQ PUSH2 0x359 JUMPI DUP1 PUSH4 0x8BEA5BE4 EQ PUSH2 0x36D JUMPI DUP1 PUSH4 0x8DA5CB5B EQ PUSH2 0x376 JUMPI PUSH2 0x1FB JUMP JUMPDEST DUP1 PUSH4 0x39509351 GT PUSH2 0x192 JUMPI DUP1 PUSH4 0x676E4CBA GT PUSH2 0x161 JUMPI DUP1 PUSH4 0x676E4CBA EQ PUSH2 0x304 JUMPI DUP1 PUSH4 0x67F75726 EQ PUSH2 0x30E JUMPI DUP1 PUSH4 0x70A08231 EQ PUSH2 0x335 JUMPI DUP1 PUSH4 0x715018A6 EQ PUSH2 0x348 JUMPI PUSH2 0x1FB JUMP JUMPDEST DUP1 PUSH4 0x39509351 EQ PUSH2 0x29F JUMPI DUP1 PUSH4 0x3CCFD60B EQ PUSH2 0x2B2 JUMPI DUP1 PUSH4 0x5796F10B EQ PUSH2 0x2BC JUMPI DUP1 PUSH4 0x5EFC071A EQ PUSH2 0x2C5 JUMPI PUSH2 0x1FB JUMP JUMPDEST DUP1 PUSH4 0x22673030 GT PUSH2 0x1CE JUMPI DUP1 PUSH4 0x22673030 EQ PUSH2 0x25F JUMPI DUP1 PUSH4 0x23B872DD EQ PUSH2 0x26A JUMPI DUP1 PUSH4 0x313CE567 EQ PUSH2 0x27D JUMPI DUP1 PUSH4 0x367E1C3E EQ PUSH2 0x28C JUMPI PUSH2 0x1FB JUMP JUMPDEST DUP1 PUSH4 0x6FDDE03 EQ PUSH2 0x200 JUMPI DUP1 PUSH4 0x8B309E3 EQ PUSH2 0x21E JUMPI DUP1 PUSH4 0x95EA7B3 EQ PUSH2 0x234 JUMPI DUP1 PUSH4 0x18160DDD EQ PUSH2 0x257 JUMPI JUMPDEST PUSH1 0x0 DUP1 REVERT JUMPDEST PUSH2 0x208 PUSH2 0x494 JUMP JUMPDEST PUSH1 0x40 MLOAD PUSH2 0x215 SWAP2 SWAP1 PUSH2 0x17B3 JUMP JUMPDEST PUSH1 0x40 MLOAD DUP1 SWAP2 SUB SWAP1 RETURN JUMPDEST PUSH2 0x226 PUSH2 0x526 JUMP JUMPDEST PUSH1 0x40 MLOAD SWAP1 DUP2 MSTORE PUSH1 0x20 ADD PUSH2 0x215 JUMP JUMPDEST PUSH2 0x247 PUSH2 0x242 CALLDATASIZE PUSH1 0x4 PUSH2 0x16F3 JUMP JUMPDEST PUSH2 0x548 JUMP JUMPDEST PUSH1 0x40 MLOAD SWAP1 ISZERO ISZERO DUP2 MSTORE PUSH1 0x20 ADD PUSH2 0x215 JUMP JUMPDEST PUSH1 0x3 SLOAD PUSH2 0x226 JUMP JUMPDEST PUSH2 0x226 PUSH4 0x62312880 DUP2 JUMP JUMPDEST PUSH2 0x247 PUSH2 0x278 CALLDATASIZE PUSH1 0x4 PUSH2 0x16B8 JUMP JUMPDEST PUSH2 0x560 JUMP JUMPDEST PUSH1 0x40 MLOAD PUSH1 0x18 DUP2 MSTORE PUSH1 0x20 ADD PUSH2 0x215 JUMP JUMPDEST PUSH2 0x226 PUSH2 0x29A CALLDATASIZE PUSH1 0x4 PUSH2 0x173C JUMP JUMPDEST PUSH2 0x586 JUMP JUMPDEST PUSH2 0x247 PUSH2 0x2AD CALLDATASIZE PUSH1 0x4 PUSH2 0x16F3 JUMP JUMPDEST PUSH2 0x5CB JUMP JUMPDEST PUSH2 0x2BA PUSH2 0x60A JUMP JUMPDEST STOP JUMPDEST PUSH2 0x226 PUSH1 0x6 SLOAD DUP2 JUMP JUMPDEST PUSH2 0x2EC PUSH32 0x0 DUP2 JUMP JUMPDEST PUSH1 0x40 MLOAD PUSH1 0x1 PUSH1 0x1 PUSH1 0xA0 SHL SUB SWAP1 SWAP2 AND DUP2 MSTORE PUSH1 0x20 ADD PUSH2 0x215 JUMP JUMPDEST PUSH2 0x226 PUSH3 0x7A120 DUP2 JUMP JUMPDEST PUSH2 0x2EC PUSH32 0x0 DUP2 JUMP JUMPDEST PUSH2 0x226 PUSH2 0x343 CALLDATASIZE PUSH1 0x4 PUSH2 0x166C JUMP JUMPDEST PUSH2 0x82E JUMP JUMPDEST PUSH2 0x2BA PUSH2 0x84D JUMP JUMPDEST PUSH2 0x226 PUSH1 0x8 SLOAD DUP2 JUMP JUMPDEST PUSH2 0x226 PUSH13 0x22142BA7658B08825EE0000000 DUP2 JUMP JUMPDEST PUSH2 0x226 PUSH1 0x9 SLOAD DUP2 JUMP JUMPDEST PUSH1 0x0 SLOAD PUSH1 0x1 PUSH1 0x1 PUSH1 0xA0 SHL SUB AND PUSH2 0x2EC JUMP JUMPDEST PUSH2 0x39A PUSH2 0x395 CALLDATASIZE PUSH1 0x4 PUSH2 0x1754 JUMP JUMPDEST PUSH2 0x8B6 JUMP JUMPDEST PUSH1 0x40 DUP1 MLOAD SWAP3 DUP4 MSTORE PUSH1 0x20 DUP4 ADD SWAP2 SWAP1 SWAP2 MSTORE ADD PUSH2 0x215 JUMP JUMPDEST PUSH2 0x226 PUSH8 0xDE0B6B3A7640000 DUP2 JUMP JUMPDEST PUSH2 0x208 PUSH2 0xC85 JUMP JUMPDEST PUSH2 0x226 PUSH2 0x3D4 CALLDATASIZE PUSH1 0x4 PUSH2 0x1776 JUMP JUMPDEST PUSH2 0xC94 JUMP JUMPDEST PUSH2 0x247 PUSH2 0x3E7 CALLDATASIZE PUSH1 0x4 PUSH2 0x16F3 JUMP JUMPDEST PUSH2 0xCF4 JUMP JUMPDEST PUSH2 0x247 PUSH2 0x3FA CALLDATASIZE PUSH1 0x4 PUSH2 0x16F3 JUMP JUMPDEST PUSH2 0xD91 JUMP JUMPDEST PUSH2 0x226 PUSH3 0x473100 DUP2 JUMP JUMPDEST PUSH2 0x226 PUSH2 0xD9F JUMP JUMPDEST PUSH2 0x2EC PUSH20 0x165CD37B4C644C2921454429E7F9358D18A45E14 DUP2 JUMP JUMPDEST PUSH2 0x226 PUSH1 0x7 SLOAD DUP2 JUMP JUMPDEST PUSH2 0x226 PUSH2 0x443 CALLDATASIZE PUSH1 0x4 PUSH2 0x1686 JUMP JUMPDEST PUSH1 0x1 PUSH1 0x1 PUSH1 0xA0 SHL SUB SWAP2 DUP3 AND PUSH1 0x0 SWAP1 DUP2 MSTORE PUSH1 0x2 PUSH1 0x20 SWAP1 DUP2 MSTORE PUSH1 0x40 DUP1 DUP4 KECCAK256 SWAP4 SWAP1 SWAP5 AND DUP3 MSTORE SWAP2 SWAP1 SWAP2 MSTORE KECCAK256 SLOAD SWAP1 JUMP JUMPDEST PUSH2 0x2BA PUSH2 0x47C CALLDATASIZE PUSH1 0x4 PUSH2 0x166C JUMP JUMPDEST PUSH2 0xDB4 JUMP JUMPDEST PUSH2 0x226 PUSH2 0x48F CALLDATASIZE PUSH1 0x4 PUSH2 0x173C JUMP JUMPDEST PUSH2 0xE7F JUMP JUMPDEST PUSH1 0x60 PUSH1 0x4 DUP1 SLOAD PUSH2 0x4A3 SWAP1 PUSH2 0x1994 JUMP JUMPDEST DUP1 PUSH1 0x1F ADD PUSH1 0x20 DUP1 SWAP2 DIV MUL PUSH1 0x20 ADD PUSH1 0x40 MLOAD SWAP1 DUP2 ADD PUSH1 0x40 MSTORE DUP1 SWAP3 SWAP2 SWAP1 DUP2 DUP2 MSTORE PUSH1 0x20 ADD DUP3 DUP1 SLOAD PUSH2 0x4CF SWAP1 PUSH2 0x1994 JUMP JUMPDEST DUP1 ISZERO PUSH2 0x51C JUMPI DUP1 PUSH1 0x1F LT PUSH2 0x4F1 JUMPI PUSH2 0x100 DUP1 DUP4 SLOAD DIV MUL DUP4 MSTORE SWAP2 PUSH1 0x20 ADD SWAP2 PUSH2 0x51C JUMP JUMPDEST DUP3 ADD SWAP2 SWAP1 PUSH1 0x0 MSTORE PUSH1 0x20 PUSH1 0x0 KECCAK256 SWAP1 JUMPDEST DUP2 SLOAD DUP2 MSTORE SWAP1 PUSH1 0x1 ADD SWAP1 PUSH1 0x20 ADD DUP1 DUP4 GT PUSH2 0x4FF JUMPI DUP3 SWAP1 SUB PUSH1 0x1F AND DUP3 ADD SWAP2 JUMPDEST POP POP POP POP POP SWAP1 POP SWAP1 JUMP JUMPDEST PUSH1 0x64 PUSH2 0x53B PUSH8 0xDE0B6B3A7640000 PUSH1 0x60 PUSH2 0x1932 JUMP JUMPDEST PUSH2 0x545 SWAP2 SWAP1 PUSH2 0x17FE JUMP JUMPDEST DUP2 JUMP JUMPDEST PUSH1 0x0 CALLER PUSH2 0x556 DUP2 DUP6 DUP6 PUSH2 0xF1C JUMP JUMPDEST POP PUSH1 0x1 SWAP4 SWAP3 POP POP POP JUMP JUMPDEST PUSH1 0x0 CALLER PUSH2 0x56E DUP6 DUP3 DUP6 PUSH2 0x1040 JUMP JUMPDEST PUSH2 0x579 DUP6 DUP6 DUP6 PUSH2 0x10D2 JUMP JUMPDEST PUSH1 0x1 SWAP2 POP POP JUMPDEST SWAP4 SWAP3 POP POP POP JUMP JUMPDEST PUSH1 0x0 DUP1 PUSH2 0x597 PUSH4 0x62312880 DUP5 PUSH2 0x1951 JUMP JUMPDEST SWAP1 POP PUSH3 0x15180 DUP2 PUSH2 0x5AA PUSH1 0x18 PUSH1 0xA PUSH2 0x1864 JUMP JUMPDEST PUSH2 0x5B7 SWAP1 PUSH3 0x7A120 PUSH2 0x1932 JUMP JUMPDEST PUSH2 0x5C1 SWAP2 SWAP1 PUSH2 0x1932 JUMP JUMPDEST PUSH2 0x57F SWAP2 SWAP1 PUSH2 0x17FE JUMP JUMPDEST CALLER PUSH1 0x0 DUP2 DUP2 MSTORE PUSH1 0x2 PUSH1 0x20 SWAP1 DUP2 MSTORE PUSH1 0x40 DUP1 DUP4 KECCAK256 PUSH1 0x1 PUSH1 0x1 PUSH1 0xA0 SHL SUB DUP8 AND DUP5 MSTORE SWAP1 SWAP2 MSTORE DUP2 KECCAK256 SLOAD SWAP1 SWAP2 SWAP1 PUSH2 0x556 SWAP1 DUP3 SWAP1 DUP7 SWAP1 PUSH2 0x605 SWAP1 DUP8 SWAP1 PUSH2 0x17E6 JUMP JUMPDEST PUSH2 0xF1C JUMP JUMPDEST PUSH1 0x0 PUSH1 0x8 SLOAD GT DUP1 ISZERO PUSH2 0x62C JUMPI POP PUSH2 0x628 PUSH3 0x473100 PUSH4 0x62312880 PUSH2 0x17E6 JUMP JUMPDEST TIMESTAMP LT ISZERO JUMPDEST ISZERO PUSH2 0x7D5 JUMPI PUSH1 0x8 SLOAD PUSH1 0x40 MLOAD PUSH4 0x95EA7B3 PUSH1 0xE0 SHL DUP2 MSTORE PUSH1 0x1 PUSH1 0x1 PUSH1 0xA0 SHL SUB PUSH32 0x0 AND SWAP2 PUSH4 0x95EA7B3 SWAP2 PUSH2 0x6B4 SWAP2 PUSH32 0x0 SWAP2 PUSH1 0x4 ADD PUSH1 0x1 PUSH1 0x1 PUSH1 0xA0 SHL SUB SWAP3 SWAP1 SWAP3 AND DUP3 MSTORE PUSH1 0x20 DUP3 ADD MSTORE PUSH1 0x40 ADD SWAP1 JUMP JUMPDEST PUSH1 0x20 PUSH1 0x40 MLOAD DUP1 DUP4 SUB DUP2 PUSH1 0x0 DUP8 DUP1 EXTCODESIZE ISZERO DUP1 ISZERO PUSH2 0x6CE JUMPI PUSH1 0x0 DUP1 REVERT JUMPDEST POP GAS CALL ISZERO DUP1 ISZERO PUSH2 0x6E2 JUMPI RETURNDATASIZE PUSH1 0x0 DUP1 RETURNDATACOPY RETURNDATASIZE PUSH1 0x0 REVERT JUMPDEST POP POP POP POP PUSH1 0x40 MLOAD RETURNDATASIZE PUSH1 0x1F NOT PUSH1 0x1F DUP3 ADD AND DUP3 ADD DUP1 PUSH1 0x40 MSTORE POP DUP2 ADD SWAP1 PUSH2 0x706 SWAP2 SWAP1 PUSH2 0x171C JUMP JUMPDEST POP PUSH1 0x8 SLOAD PUSH1 0x40 MLOAD PUSH4 0x889BFE7 PUSH1 0xE0 SHL DUP2 MSTORE PUSH1 0x1 PUSH1 0x1 PUSH1 0xA0 SHL SUB PUSH32 0x0 DUP2 AND PUSH1 0x4 DUP4 ADD MSTORE PUSH1 0x24 DUP3 ADD SWAP3 SWAP1 SWAP3 MSTORE PUSH1 0x60 PUSH1 0x44 DUP3 ADD MSTORE PUSH1 0x9 PUSH1 0x64 DUP3 ADD MSTORE PUSH9 0x38BAB4B2173732B0B9 PUSH1 0xB9 SHL PUSH1 0x84 DUP3 ADD MSTORE PUSH32 0x0 SWAP1 SWAP2 AND SWAP1 PUSH4 0x889BFE7 SWAP1 PUSH1 0xA4 ADD PUSH1 0x0 PUSH1 0x40 MLOAD DUP1 DUP4 SUB DUP2 PUSH1 0x0 DUP8 DUP1 EXTCODESIZE ISZERO DUP1 ISZERO PUSH2 0x7B7 JUMPI PUSH1 0x0 DUP1 REVERT JUMPDEST POP GAS CALL ISZERO DUP1 ISZERO PUSH2 0x7CB JUMPI RETURNDATASIZE PUSH1 0x0 DUP1 RETURNDATACOPY RETURNDATASIZE PUSH1 0x0 REVERT JUMPDEST POP POP PUSH1 0x0 PUSH1 0x8 SSTORE POP POP JUMPDEST PUSH1 0x7 SLOAD ISZERO PUSH2 0x82C JUMPI PUSH2 0x826 PUSH2 0x7F2 PUSH1 0x0 SLOAD PUSH1 0x1 PUSH1 0x1 PUSH1 0xA0 SHL SUB AND SWAP1 JUMP JUMPDEST PUSH1 0x7 SLOAD PUSH1 0x1 PUSH1 0x1 PUSH1 0xA0 SHL SUB PUSH32 0x0 AND SWAP2 SWAP1 PUSH2 0x12A0 JUMP JUMPDEST PUSH1 0x0 PUSH1 0x7 SSTORE JUMPDEST JUMP JUMPDEST PUSH1 0x1 PUSH1 0x1 PUSH1 0xA0 SHL SUB DUP2 AND PUSH1 0x0 SWAP1 DUP2 MSTORE PUSH1 0x1 PUSH1 0x20 MSTORE PUSH1 0x40 SWAP1 KECCAK256 SLOAD JUMPDEST SWAP2 SWAP1 POP JUMP JUMPDEST PUSH1 0x0 SLOAD PUSH1 0x1 PUSH1 0x1 PUSH1 0xA0 SHL SUB AND CALLER EQ PUSH2 0x8AC JUMPI PUSH1 0x40 MLOAD PUSH3 0x461BCD PUSH1 0xE5 SHL DUP2 MSTORE PUSH1 0x20 PUSH1 0x4 DUP3 ADD DUP2 SWAP1 MSTORE PUSH1 0x24 DUP3 ADD MSTORE PUSH32 0x4F776E61626C653A2063616C6C6572206973206E6F7420746865206F776E6572 PUSH1 0x44 DUP3 ADD MSTORE PUSH1 0x64 ADD JUMPDEST PUSH1 0x40 MLOAD DUP1 SWAP2 SUB SWAP1 REVERT JUMPDEST PUSH2 0x82C PUSH1 0x0 PUSH2 0x1308 JUMP JUMPDEST PUSH1 0x0 DUP1 PUSH2 0x8CB PUSH1 0x0 SLOAD PUSH1 0x1 PUSH1 0x1 PUSH1 0xA0 SHL SUB AND SWAP1 JUMP JUMPDEST PUSH1 0x1 PUSH1 0x1 PUSH1 0xA0 SHL SUB AND CALLER PUSH1 0x1 PUSH1 0x1 PUSH1 0xA0 SHL SUB AND EQ ISZERO PUSH2 0xA6C JUMPI PUSH13 0x22142BA7658B08825EE0000000 DUP5 EQ PUSH2 0x940 JUMPI PUSH1 0x40 MLOAD PUSH3 0x461BCD PUSH1 0xE5 SHL DUP2 MSTORE PUSH1 0x20 PUSH1 0x4 DUP3 ADD MSTORE PUSH1 0x17 PUSH1 0x24 DUP3 ADD MSTORE PUSH32 0x57726F6E6720514420616D6F756E7420656E7465726564000000000000000000 PUSH1 0x44 DUP3 ADD MSTORE PUSH1 0x64 ADD PUSH2 0x8A3 JUMP JUMPDEST PUSH1 0x64 PUSH2 0x955 PUSH8 0xDE0B6B3A7640000 PUSH1 0x16 PUSH2 0x1932 JUMP JUMPDEST PUSH2 0x95F SWAP2 SWAP1 PUSH2 0x17FE JUMP JUMPDEST PUSH1 0x6 SLOAD LT PUSH2 0x9AF JUMPI PUSH1 0x40 MLOAD PUSH3 0x461BCD PUSH1 0xE5 SHL DUP2 MSTORE PUSH1 0x20 PUSH1 0x4 DUP3 ADD MSTORE PUSH1 0x17 PUSH1 0x24 DUP3 ADD MSTORE PUSH32 0x43616E277420616C6C6F6361746520616E79206D6F7265000000000000000000 PUSH1 0x44 DUP3 ADD MSTORE PUSH1 0x64 ADD PUSH2 0x8A3 JUMP JUMPDEST PUSH2 0x9BB PUSH1 0x18 PUSH1 0xA PUSH2 0x1864 JUMP JUMPDEST PUSH8 0xDE0B6B3A7640000 PUSH1 0x6 SLOAD PUSH1 0x6 PUSH1 0xA PUSH2 0x9D5 SWAP2 SWAP1 PUSH2 0x1864 JUMP JUMPDEST PUSH2 0x9DF SWAP1 DUP9 PUSH2 0x1932 JUMP JUMPDEST PUSH2 0x9E9 SWAP2 SWAP1 PUSH2 0x1932 JUMP JUMPDEST PUSH2 0x9F3 SWAP2 SWAP1 PUSH2 0x17FE JUMP JUMPDEST PUSH2 0x9FD SWAP2 SWAP1 PUSH2 0x17FE JUMP JUMPDEST SWAP2 POP PUSH1 0x64 PUSH2 0xA14 PUSH8 0xDE0B6B3A7640000 PUSH1 0x2 PUSH2 0x1932 JUMP JUMPDEST PUSH2 0xA1E SWAP2 SWAP1 PUSH2 0x17FE JUMP JUMPDEST PUSH1 0x6 PUSH1 0x0 DUP3 DUP3 SLOAD PUSH2 0xA2F SWAP2 SWAP1 PUSH2 0x17E6 JUMP JUMPDEST SWAP3 POP POP DUP2 SWAP1 SSTORE POP DUP2 PUSH1 0x7 PUSH1 0x0 DUP3 DUP3 SLOAD PUSH2 0xA48 SWAP2 SWAP1 PUSH2 0x17E6 JUMP JUMPDEST SWAP3 POP POP DUP2 SWAP1 SSTORE POP DUP4 PUSH1 0x9 PUSH1 0x0 DUP3 DUP3 SLOAD PUSH2 0xA61 SWAP2 SWAP1 PUSH2 0x17E6 JUMP JUMPDEST SWAP1 SWAP2 SSTORE POP PUSH2 0xBAD SWAP1 POP JUMP JUMPDEST PUSH11 0x52B7D2DCC80CD2E4000000 DUP5 LT ISZERO PUSH2 0xAB5 JUMPI PUSH1 0x40 MLOAD PUSH3 0x461BCD PUSH1 0xE5 SHL DUP2 MSTORE PUSH1 0x20 PUSH1 0x4 DUP3 ADD MSTORE PUSH1 0xB PUSH1 0x24 DUP3 ADD MSTORE PUSH11 0x51443A204D494E545F5231 PUSH1 0xA8 SHL PUSH1 0x44 DUP3 ADD MSTORE PUSH1 0x64 ADD PUSH2 0x8A3 JUMP JUMPDEST PUSH4 0x62312880 TIMESTAMP LT ISZERO DUP1 ISZERO PUSH2 0xAD8 JUMPI POP PUSH2 0xAD5 PUSH3 0x473100 PUSH4 0x62312880 PUSH2 0x17E6 JUMP JUMPDEST TIMESTAMP LT JUMPDEST PUSH2 0xB12 JUMPI PUSH1 0x40 MLOAD PUSH3 0x461BCD PUSH1 0xE5 SHL DUP2 MSTORE PUSH1 0x20 PUSH1 0x4 DUP3 ADD MSTORE PUSH1 0xB PUSH1 0x24 DUP3 ADD MSTORE PUSH11 0x28A21D1026A4A72A2FA919 PUSH1 0xA9 SHL PUSH1 0x44 DUP3 ADD MSTORE PUSH1 0x64 ADD PUSH2 0x8A3 JUMP JUMPDEST PUSH2 0xB1B TIMESTAMP PUSH2 0x586 JUMP JUMPDEST PUSH1 0x9 SLOAD PUSH1 0x3 SLOAD PUSH2 0xB2B SWAP2 SWAP1 PUSH2 0x1951 JUMP JUMPDEST GT ISZERO PUSH2 0xB67 JUMPI PUSH1 0x40 MLOAD PUSH3 0x461BCD PUSH1 0xE5 SHL DUP2 MSTORE PUSH1 0x20 PUSH1 0x4 DUP3 ADD MSTORE PUSH1 0xB PUSH1 0x24 DUP3 ADD MSTORE PUSH11 0x51443A204D494E545F5233 PUSH1 0xA8 SHL PUSH1 0x44 DUP3 ADD MSTORE PUSH1 0x64 ADD PUSH2 0x8A3 JUMP JUMPDEST PUSH2 0xB71 DUP5 TIMESTAMP PUSH2 0xC94 JUMP JUMPDEST SWAP2 POP PUSH1 0x64 PUSH2 0xB80 DUP4 PUSH1 0x16 PUSH2 0x1932 JUMP JUMPDEST PUSH2 0xB8A SWAP2 SWAP1 PUSH2 0x17FE JUMP JUMPDEST SWAP1 POP PUSH2 0xB96 DUP2 DUP4 PUSH2 0x1951 JUMP JUMPDEST PUSH1 0x8 PUSH1 0x0 DUP3 DUP3 SLOAD PUSH2 0xBA7 SWAP2 SWAP1 PUSH2 0x17E6 JUMP JUMPDEST SWAP1 SWAP2 SSTORE POP POP JUMPDEST PUSH2 0xBB7 DUP4 DUP6 PUSH2 0x1358 JUMP JUMPDEST PUSH2 0xBEC PUSH32 0x0 PUSH1 0x1 PUSH1 0x1 PUSH1 0xA0 SHL SUB AND CALLER ADDRESS DUP6 PUSH2 0x1437 JUMP JUMPDEST DUP1 ISZERO PUSH2 0xC3A JUMPI PUSH2 0xC3A PUSH1 0x1 PUSH1 0x1 PUSH1 0xA0 SHL SUB PUSH32 0x0 AND PUSH20 0x165CD37B4C644C2921454429E7F9358D18A45E14 DUP4 PUSH2 0x12A0 JUMP JUMPDEST PUSH1 0x40 DUP1 MLOAD DUP4 DUP2 MSTORE PUSH1 0x20 DUP2 ADD DUP7 SWAP1 MSTORE PUSH1 0x1 PUSH1 0x1 PUSH1 0xA0 SHL SUB DUP6 AND SWAP2 PUSH32 0x4C209B5FC8AD50758F13E2E1088BA56A560DFF690A1C6FEF26394F4C03821C4F SWAP2 ADD PUSH1 0x40 MLOAD DUP1 SWAP2 SUB SWAP1 LOG2 SWAP3 POP SWAP3 SWAP1 POP JUMP JUMPDEST PUSH1 0x60 PUSH1 0x5 DUP1 SLOAD PUSH2 0x4A3 SWAP1 PUSH2 0x1994 JUMP JUMPDEST PUSH1 0x0 DUP1 PUSH2 0xCA0 DUP4 PUSH2 0xE7F JUMP JUMPDEST SWAP1 POP PUSH2 0xCAE PUSH1 0x18 PUSH1 0xA PUSH2 0x1864 JUMP JUMPDEST PUSH8 0xDE0B6B3A7640000 DUP3 PUSH2 0xCC4 PUSH1 0x6 PUSH1 0xA PUSH2 0x1864 JUMP JUMPDEST PUSH2 0xCCE SWAP1 DUP9 PUSH2 0x1932 JUMP JUMPDEST PUSH2 0xCD8 SWAP2 SWAP1 PUSH2 0x1932 JUMP JUMPDEST PUSH2 0xCE2 SWAP2 SWAP1 PUSH2 0x17FE JUMP JUMPDEST PUSH2 0xCEC SWAP2 SWAP1 PUSH2 0x17FE JUMP JUMPDEST SWAP5 SWAP4 POP POP POP POP JUMP JUMPDEST CALLER PUSH1 0x0 DUP2 DUP2 MSTORE PUSH1 0x2 PUSH1 0x20 SWAP1 DUP2 MSTORE PUSH1 0x40 DUP1 DUP4 KECCAK256 PUSH1 0x1 PUSH1 0x1 PUSH1 0xA0 SHL SUB DUP8 AND DUP5 MSTORE SWAP1 SWAP2 MSTORE DUP2 KECCAK256 SLOAD SWAP1 SWAP2 SWAP1 DUP4 DUP2 LT ISZERO PUSH2 0xD79 JUMPI PUSH1 0x40 MLOAD PUSH3 0x461BCD PUSH1 0xE5 SHL DUP2 MSTORE PUSH1 0x20 PUSH1 0x4 DUP3 ADD MSTORE PUSH1 0x25 PUSH1 0x24 DUP3 ADD MSTORE PUSH32 0x45524332303A2064656372656173656420616C6C6F77616E63652062656C6F77 PUSH1 0x44 DUP3 ADD MSTORE PUSH5 0x207A65726F PUSH1 0xD8 SHL PUSH1 0x64 DUP3 ADD MSTORE PUSH1 0x84 ADD PUSH2 0x8A3 JUMP JUMPDEST PUSH2 0xD86 DUP3 DUP7 DUP7 DUP5 SUB PUSH2 0xF1C JUMP JUMPDEST POP PUSH1 0x1 SWAP5 SWAP4 POP POP POP POP JUMP JUMPDEST PUSH1 0x0 CALLER PUSH2 0x556 DUP2 DUP6 DUP6 PUSH2 0x10D2 JUMP JUMPDEST PUSH1 0x64 PUSH2 0x53B PUSH8 0xDE0B6B3A7640000 PUSH1 0x16 PUSH2 0x1932 JUMP JUMPDEST PUSH1 0x0 SLOAD PUSH1 0x1 PUSH1 0x1 PUSH1 0xA0 SHL SUB AND CALLER EQ PUSH2 0xE0E JUMPI PUSH1 0x40 MLOAD PUSH3 0x461BCD PUSH1 0xE5 SHL DUP2 MSTORE PUSH1 0x20 PUSH1 0x4 DUP3 ADD DUP2 SWAP1 MSTORE PUSH1 0x24 DUP3 ADD MSTORE PUSH32 0x4F776E61626C653A2063616C6C6572206973206E6F7420746865206F776E6572 PUSH1 0x44 DUP3 ADD MSTORE PUSH1 0x64 ADD PUSH2 0x8A3 JUMP JUMPDEST PUSH1 0x1 PUSH1 0x1 PUSH1 0xA0 SHL SUB DUP2 AND PUSH2 0xE73 JUMPI PUSH1 0x40 MLOAD PUSH3 0x461BCD PUSH1 0xE5 SHL DUP2 MSTORE PUSH1 0x20 PUSH1 0x4 DUP3 ADD MSTORE PUSH1 0x26 PUSH1 0x24 DUP3 ADD MSTORE PUSH32 0x4F776E61626C653A206E6577206F776E657220697320746865207A65726F2061 PUSH1 0x44 DUP3 ADD MSTORE PUSH6 0x646472657373 PUSH1 0xD0 SHL PUSH1 0x64 DUP3 ADD MSTORE PUSH1 0x84 ADD PUSH2 0x8A3 JUMP JUMPDEST PUSH2 0xE7C DUP2 PUSH2 0x1308 JUMP JUMPDEST POP JUMP JUMPDEST PUSH1 0x0 DUP1 PUSH2 0xE90 PUSH4 0x62312880 DUP5 PUSH2 0x1951 JUMP JUMPDEST SWAP1 POP PUSH1 0x64 PUSH2 0xEA7 PUSH8 0xDE0B6B3A7640000 PUSH1 0x16 PUSH2 0x1932 JUMP JUMPDEST PUSH2 0xEB1 SWAP2 SWAP1 PUSH2 0x17FE JUMP JUMPDEST PUSH3 0x473100 DUP3 PUSH1 0x64 PUSH2 0xECB PUSH8 0xDE0B6B3A7640000 PUSH1 0x16 PUSH2 0x1932 JUMP JUMPDEST PUSH2 0xED5 SWAP2 SWAP1 PUSH2 0x17FE JUMP JUMPDEST PUSH1 0x64 PUSH2 0xEEA PUSH8 0xDE0B6B3A7640000 PUSH1 0x60 PUSH2 0x1932 JUMP JUMPDEST PUSH2 0xEF4 SWAP2 SWAP1 PUSH2 0x17FE JUMP JUMPDEST PUSH2 0xEFE SWAP2 SWAP1 PUSH2 0x1951 JUMP JUMPDEST PUSH2 0xF08 SWAP2 SWAP1 PUSH2 0x1932 JUMP JUMPDEST PUSH2 0xF12 SWAP2 SWAP1 PUSH2 0x17FE JUMP JUMPDEST PUSH2 0x57F SWAP2 SWAP1 PUSH2 0x17E6 JUMP JUMPDEST PUSH1 0x1 PUSH1 0x1 PUSH1 0xA0 SHL SUB DUP4 AND PUSH2 0xF7E JUMPI PUSH1 0x40 MLOAD PUSH3 0x461BCD PUSH1 0xE5 SHL DUP2 MSTORE PUSH1 0x20 PUSH1 0x4 DUP3 ADD MSTORE PUSH1 0x24 DUP1 DUP3 ADD MSTORE PUSH32 0x45524332303A20617070726F76652066726F6D20746865207A65726F20616464 PUSH1 0x44 DUP3 ADD MSTORE PUSH4 0x72657373 PUSH1 0xE0 SHL PUSH1 0x64 DUP3 ADD MSTORE PUSH1 0x84 ADD PUSH2 0x8A3 JUMP JUMPDEST PUSH1 0x1 PUSH1 0x1 PUSH1 0xA0 SHL SUB DUP3 AND PUSH2 0xFDF JUMPI PUSH1 0x40 MLOAD PUSH3 0x461BCD PUSH1 0xE5 SHL DUP2 MSTORE PUSH1 0x20 PUSH1 0x4 DUP3 ADD MSTORE PUSH1 0x22 PUSH1 0x24 DUP3 ADD MSTORE PUSH32 0x45524332303A20617070726F766520746F20746865207A65726F206164647265 PUSH1 0x44 DUP3 ADD MSTORE PUSH2 0x7373 PUSH1 0xF0 SHL PUSH1 0x64 DUP3 ADD MSTORE PUSH1 0x84 ADD PUSH2 0x8A3 JUMP JUMPDEST PUSH1 0x1 PUSH1 0x1 PUSH1 0xA0 SHL SUB DUP4 DUP2 AND PUSH1 0x0 DUP2 DUP2 MSTORE PUSH1 0x2 PUSH1 0x20 SWAP1 DUP2 MSTORE PUSH1 0x40 DUP1 DUP4 KECCAK256 SWAP5 DUP8 AND DUP1 DUP5 MSTORE SWAP5 DUP3 MSTORE SWAP2 DUP3 SWAP1 KECCAK256 DUP6 SWAP1 SSTORE SWAP1 MLOAD DUP5 DUP2 MSTORE PUSH32 0x8C5BE1E5EBEC7D5BD14F71427D1E84F3DD0314C0F7B2291E5B200AC8C7C3B925 SWAP2 ADD PUSH1 0x40 MLOAD DUP1 SWAP2 SUB SWAP1 LOG3 POP POP POP JUMP JUMPDEST PUSH1 0x1 PUSH1 0x1 PUSH1 0xA0 SHL SUB DUP4 DUP2 AND PUSH1 0x0 SWAP1 DUP2 MSTORE PUSH1 0x2 PUSH1 0x20 SWAP1 DUP2 MSTORE PUSH1 0x40 DUP1 DUP4 KECCAK256 SWAP4 DUP7 AND DUP4 MSTORE SWAP3 SWAP1 MSTORE KECCAK256 SLOAD PUSH1 0x0 NOT DUP2 EQ PUSH2 0x10CC JUMPI DUP2 DUP2 LT ISZERO PUSH2 0x10BF JUMPI PUSH1 0x40 MLOAD PUSH3 0x461BCD PUSH1 0xE5 SHL DUP2 MSTORE PUSH1 0x20 PUSH1 0x4 DUP3 ADD MSTORE PUSH1 0x1D PUSH1 0x24 DUP3 ADD MSTORE PUSH32 0x45524332303A20696E73756666696369656E7420616C6C6F77616E6365000000 PUSH1 0x44 DUP3 ADD MSTORE PUSH1 0x64 ADD PUSH2 0x8A3 JUMP JUMPDEST PUSH2 0x10CC DUP5 DUP5 DUP5 DUP5 SUB PUSH2 0xF1C JUMP JUMPDEST POP POP POP POP JUMP JUMPDEST PUSH1 0x1 PUSH1 0x1 PUSH1 0xA0 SHL SUB DUP4 AND PUSH2 0x1136 JUMPI PUSH1 0x40 MLOAD PUSH3 0x461BCD PUSH1 0xE5 SHL DUP2 MSTORE PUSH1 0x20 PUSH1 0x4 DUP3 ADD MSTORE PUSH1 0x25 PUSH1 0x24 DUP3 ADD MSTORE PUSH32 0x45524332303A207472616E736665722066726F6D20746865207A65726F206164 PUSH1 0x44 DUP3 ADD MSTORE PUSH5 0x6472657373 PUSH1 0xD8 SHL PUSH1 0x64 DUP3 ADD MSTORE PUSH1 0x84 ADD PUSH2 0x8A3 JUMP JUMPDEST PUSH1 0x1 PUSH1 0x1 PUSH1 0xA0 SHL SUB DUP3 AND PUSH2 0x1198 JUMPI PUSH1 0x40 MLOAD PUSH3 0x461BCD PUSH1 0xE5 SHL DUP2 MSTORE PUSH1 0x20 PUSH1 0x4 DUP3 ADD MSTORE PUSH1 0x23 PUSH1 0x24 DUP3 ADD MSTORE PUSH32 0x45524332303A207472616E7366657220746F20746865207A65726F2061646472 PUSH1 0x44 DUP3 ADD MSTORE PUSH3 0x657373 PUSH1 0xE8 SHL PUSH1 0x64 DUP3 ADD MSTORE PUSH1 0x84 ADD PUSH2 0x8A3 JUMP JUMPDEST PUSH1 0x1 PUSH1 0x1 PUSH1 0xA0 SHL SUB DUP4 AND PUSH1 0x0 SWAP1 DUP2 MSTORE PUSH1 0x1 PUSH1 0x20 MSTORE PUSH1 0x40 SWAP1 KECCAK256 SLOAD DUP2 DUP2 LT ISZERO PUSH2 0x1210 JUMPI PUSH1 0x40 MLOAD PUSH3 0x461BCD PUSH1 0xE5 SHL DUP2 MSTORE PUSH1 0x20 PUSH1 0x4 DUP3 ADD MSTORE PUSH1 0x26 PUSH1 0x24 DUP3 ADD MSTORE PUSH32 0x45524332303A207472616E7366657220616D6F756E7420657863656564732062 PUSH1 0x44 DUP3 ADD MSTORE PUSH6 0x616C616E6365 PUSH1 0xD0 SHL PUSH1 0x64 DUP3 ADD MSTORE PUSH1 0x84 ADD PUSH2 0x8A3 JUMP JUMPDEST PUSH1 0x1 PUSH1 0x1 PUSH1 0xA0 SHL SUB DUP1 DUP6 AND PUSH1 0x0 SWAP1 DUP2 MSTORE PUSH1 0x1 PUSH1 0x20 MSTORE PUSH1 0x40 DUP1 DUP3 KECCAK256 DUP6 DUP6 SUB SWAP1 SSTORE SWAP2 DUP6 AND DUP2 MSTORE SWAP1 DUP2 KECCAK256 DUP1 SLOAD DUP5 SWAP3 SWAP1 PUSH2 0x1247 SWAP1 DUP5 SWAP1 PUSH2 0x17E6 JUMP JUMPDEST SWAP3 POP POP DUP2 SWAP1 SSTORE POP DUP3 PUSH1 0x1 PUSH1 0x1 PUSH1 0xA0 SHL SUB AND DUP5 PUSH1 0x1 PUSH1 0x1 PUSH1 0xA0 SHL SUB AND PUSH32 0xDDF252AD1BE2C89B69C2B068FC378DAA952BA7F163C4A11628F55A4DF523B3EF DUP5 PUSH1 0x40 MLOAD PUSH2 0x1293 SWAP2 DUP2 MSTORE PUSH1 0x20 ADD SWAP1 JUMP JUMPDEST PUSH1 0x40 MLOAD DUP1 SWAP2 SUB SWAP1 LOG3 PUSH2 0x10CC JUMP JUMPDEST PUSH1 0x40 MLOAD PUSH1 0x1 PUSH1 0x1 PUSH1 0xA0 SHL SUB DUP4 AND PUSH1 0x24 DUP3 ADD MSTORE PUSH1 0x44 DUP2 ADD DUP3 SWAP1 MSTORE PUSH2 0x1303 SWAP1 DUP5 SWAP1 PUSH4 0xA9059CBB PUSH1 0xE0 SHL SWAP1 PUSH1 0x64 ADD JUMPDEST PUSH1 0x40 DUP1 MLOAD PUSH1 0x1F NOT DUP2 DUP5 SUB ADD DUP2 MSTORE SWAP2 SWAP1 MSTORE PUSH1 0x20 DUP2 ADD DUP1 MLOAD PUSH1 0x1 PUSH1 0x1 PUSH1 0xE0 SHL SUB AND PUSH1 0x1 PUSH1 0x1 PUSH1 0xE0 SHL SUB NOT SWAP1 SWAP4 AND SWAP3 SWAP1 SWAP3 OR SWAP1 SWAP2 MSTORE PUSH2 0x146F JUMP JUMPDEST POP POP POP JUMP JUMPDEST PUSH1 0x0 DUP1 SLOAD PUSH1 0x1 PUSH1 0x1 PUSH1 0xA0 SHL SUB DUP4 DUP2 AND PUSH1 0x1 PUSH1 0x1 PUSH1 0xA0 SHL SUB NOT DUP4 AND DUP2 OR DUP5 SSTORE PUSH1 0x40 MLOAD SWAP2 SWAP1 SWAP3 AND SWAP3 DUP4 SWAP2 PUSH32 0x8BE0079C531659141344CD1FD0A4F28419497F9722A3DAAFE3B4186F6B6457E0 SWAP2 SWAP1 LOG3 POP POP JUMP JUMPDEST PUSH1 0x1 PUSH1 0x1 PUSH1 0xA0 SHL SUB DUP3 AND PUSH2 0x13AE JUMPI PUSH1 0x40 MLOAD PUSH3 0x461BCD PUSH1 0xE5 SHL DUP2 MSTORE PUSH1 0x20 PUSH1 0x4 DUP3 ADD MSTORE PUSH1 0x1F PUSH1 0x24 DUP3 ADD MSTORE PUSH32 0x45524332303A206D696E7420746F20746865207A65726F206164647265737300 PUSH1 0x44 DUP3 ADD MSTORE PUSH1 0x64 ADD PUSH2 0x8A3 JUMP JUMPDEST DUP1 PUSH1 0x3 PUSH1 0x0 DUP3 DUP3 SLOAD PUSH2 0x13C0 SWAP2 SWAP1 PUSH2 0x17E6 JUMP JUMPDEST SWAP1 SWAP2 SSTORE POP POP PUSH1 0x1 PUSH1 0x1 PUSH1 0xA0 SHL SUB DUP3 AND PUSH1 0x0 SWAP1 DUP2 MSTORE PUSH1 0x1 PUSH1 0x20 MSTORE PUSH1 0x40 DUP2 KECCAK256 DUP1 SLOAD DUP4 SWAP3 SWAP1 PUSH2 0x13ED SWAP1 DUP5 SWAP1 PUSH2 0x17E6 JUMP JUMPDEST SWAP1 SWAP2 SSTORE POP POP PUSH1 0x40 MLOAD DUP2 DUP2 MSTORE PUSH1 0x1 PUSH1 0x1 PUSH1 0xA0 SHL SUB DUP4 AND SWAP1 PUSH1 0x0 SWAP1 PUSH32 0xDDF252AD1BE2C89B69C2B068FC378DAA952BA7F163C4A11628F55A4DF523B3EF SWAP1 PUSH1 0x20 ADD PUSH1 0x40 MLOAD DUP1 SWAP2 SUB SWAP1 LOG3 POP POP JUMP JUMPDEST PUSH1 0x40 MLOAD PUSH1 0x1 PUSH1 0x1 PUSH1 0xA0 SHL SUB DUP1 DUP6 AND PUSH1 0x24 DUP4 ADD MSTORE DUP4 AND PUSH1 0x44 DUP3 ADD MSTORE PUSH1 0x64 DUP2 ADD DUP3 SWAP1 MSTORE PUSH2 0x10CC SWAP1 DUP6 SWAP1 PUSH4 0x23B872DD PUSH1 0xE0 SHL SWAP1 PUSH1 0x84 ADD PUSH2 0x12CC JUMP JUMPDEST PUSH1 0x0 PUSH2 0x14C4 DUP3 PUSH1 0x40 MLOAD DUP1 PUSH1 0x40 ADD PUSH1 0x40 MSTORE DUP1 PUSH1 0x20 DUP2 MSTORE PUSH1 0x20 ADD PUSH32 0x5361666545524332303A206C6F772D6C6576656C2063616C6C206661696C6564 DUP2 MSTORE POP DUP6 PUSH1 0x1 PUSH1 0x1 PUSH1 0xA0 SHL SUB AND PUSH2 0x1541 SWAP1 SWAP3 SWAP2 SWAP1 PUSH4 0xFFFFFFFF AND JUMP JUMPDEST DUP1 MLOAD SWAP1 SWAP2 POP ISZERO PUSH2 0x1303 JUMPI DUP1 DUP1 PUSH1 0x20 ADD SWAP1 MLOAD DUP2 ADD SWAP1 PUSH2 0x14E2 SWAP2 SWAP1 PUSH2 0x171C JUMP JUMPDEST PUSH2 0x1303 JUMPI PUSH1 0x40 MLOAD PUSH3 0x461BCD PUSH1 0xE5 SHL DUP2 MSTORE PUSH1 0x20 PUSH1 0x4 DUP3 ADD MSTORE PUSH1 0x2A PUSH1 0x24 DUP3 ADD MSTORE PUSH32 0x5361666545524332303A204552433230206F7065726174696F6E20646964206E PUSH1 0x44 DUP3 ADD MSTORE PUSH10 0x1BDD081CDD58D8D95959 PUSH1 0xB2 SHL PUSH1 0x64 DUP3 ADD MSTORE PUSH1 0x84 ADD PUSH2 0x8A3 JUMP JUMPDEST PUSH1 0x60 PUSH2 0xCEC DUP5 DUP5 PUSH1 0x0 DUP6 DUP6 PUSH1 0x1 PUSH1 0x1 PUSH1 0xA0 SHL SUB DUP6 AND EXTCODESIZE PUSH2 0x15A3 JUMPI PUSH1 0x40 MLOAD PUSH3 0x461BCD PUSH1 0xE5 SHL DUP2 MSTORE PUSH1 0x20 PUSH1 0x4 DUP3 ADD MSTORE PUSH1 0x1D PUSH1 0x24 DUP3 ADD MSTORE PUSH32 0x416464726573733A2063616C6C20746F206E6F6E2D636F6E7472616374000000 PUSH1 0x44 DUP3 ADD MSTORE PUSH1 0x64 ADD PUSH2 0x8A3 JUMP JUMPDEST PUSH1 0x0 DUP1 DUP7 PUSH1 0x1 PUSH1 0x1 PUSH1 0xA0 SHL SUB AND DUP6 DUP8 PUSH1 0x40 MLOAD PUSH2 0x15BF SWAP2 SWAP1 PUSH2 0x1797 JUMP JUMPDEST PUSH1 0x0 PUSH1 0x40 MLOAD DUP1 DUP4 SUB DUP2 DUP6 DUP8 GAS CALL SWAP3 POP POP POP RETURNDATASIZE DUP1 PUSH1 0x0 DUP2 EQ PUSH2 0x15FC JUMPI PUSH1 0x40 MLOAD SWAP2 POP PUSH1 0x1F NOT PUSH1 0x3F RETURNDATASIZE ADD AND DUP3 ADD PUSH1 0x40 MSTORE RETURNDATASIZE DUP3 MSTORE RETURNDATASIZE PUSH1 0x0 PUSH1 0x20 DUP5 ADD RETURNDATACOPY PUSH2 0x1601 JUMP JUMPDEST PUSH1 0x60 SWAP2 POP JUMPDEST POP SWAP2 POP SWAP2 POP PUSH2 0x1611 DUP3 DUP3 DUP7 PUSH2 0x161C JUMP JUMPDEST SWAP8 SWAP7 POP POP POP POP POP POP POP JUMP JUMPDEST PUSH1 0x60 DUP4 ISZERO PUSH2 0x162B JUMPI POP DUP2 PUSH2 0x57F JUMP JUMPDEST DUP3 MLOAD ISZERO PUSH2 0x163B JUMPI DUP3 MLOAD DUP1 DUP5 PUSH1 0x20 ADD REVERT JUMPDEST DUP2 PUSH1 0x40 MLOAD PUSH3 0x461BCD PUSH1 0xE5 SHL DUP2 MSTORE PUSH1 0x4 ADD PUSH2 0x8A3 SWAP2 SWAP1 PUSH2 0x17B3 JUMP JUMPDEST DUP1 CALLDATALOAD PUSH1 0x1 PUSH1 0x1 PUSH1 0xA0 SHL SUB DUP2 AND DUP2 EQ PUSH2 0x848 JUMPI PUSH1 0x0 DUP1 REVERT JUMPDEST PUSH1 0x0 PUSH1 0x20 DUP3 DUP5 SUB SLT ISZERO PUSH2 0x167D JUMPI DUP1 DUP2 REVERT JUMPDEST PUSH2 0x57F DUP3 PUSH2 0x1655 JUMP JUMPDEST PUSH1 0x0 DUP1 PUSH1 0x40 DUP4 DUP6 SUB SLT ISZERO PUSH2 0x1698 JUMPI DUP1 DUP2 REVERT JUMPDEST PUSH2 0x16A1 DUP4 PUSH2 0x1655 JUMP JUMPDEST SWAP2 POP PUSH2 0x16AF PUSH1 0x20 DUP5 ADD PUSH2 0x1655 JUMP JUMPDEST SWAP1 POP SWAP3 POP SWAP3 SWAP1 POP JUMP JUMPDEST PUSH1 0x0 DUP1 PUSH1 0x0 PUSH1 0x60 DUP5 DUP7 SUB SLT ISZERO PUSH2 0x16CC JUMPI DUP1 DUP2 REVERT JUMPDEST PUSH2 0x16D5 DUP5 PUSH2 0x1655 JUMP JUMPDEST SWAP3 POP PUSH2 0x16E3 PUSH1 0x20 DUP6 ADD PUSH2 0x1655 JUMP JUMPDEST SWAP2 POP PUSH1 0x40 DUP5 ADD CALLDATALOAD SWAP1 POP SWAP3 POP SWAP3 POP SWAP3 JUMP JUMPDEST PUSH1 0x0 DUP1 PUSH1 0x40 DUP4 DUP6 SUB SLT ISZERO PUSH2 0x1705 JUMPI DUP2 DUP3 REVERT JUMPDEST PUSH2 0x170E DUP4 PUSH2 0x1655 JUMP JUMPDEST SWAP5 PUSH1 0x20 SWAP4 SWAP1 SWAP4 ADD CALLDATALOAD SWAP4 POP POP POP JUMP JUMPDEST PUSH1 0x0 PUSH1 0x20 DUP3 DUP5 SUB SLT ISZERO PUSH2 0x172D JUMPI DUP1 DUP2 REVERT JUMPDEST DUP2 MLOAD DUP1 ISZERO ISZERO DUP2 EQ PUSH2 0x57F JUMPI DUP2 DUP3 REVERT JUMPDEST PUSH1 0x0 PUSH1 0x20 DUP3 DUP5 SUB SLT ISZERO PUSH2 0x174D JUMPI DUP1 DUP2 REVERT JUMPDEST POP CALLDATALOAD SWAP2 SWAP1 POP JUMP JUMPDEST PUSH1 0x0 DUP1 PUSH1 0x40 DUP4 DUP6 SUB SLT ISZERO PUSH2 0x1766 JUMPI DUP2 DUP3 REVERT JUMPDEST DUP3 CALLDATALOAD SWAP2 POP PUSH2 0x16AF PUSH1 0x20 DUP5 ADD PUSH2 0x1655 JUMP JUMPDEST PUSH1 0x0 DUP1 PUSH1 0x40 DUP4 DUP6 SUB SLT ISZERO PUSH2 0x1788 JUMPI DUP2 DUP3 REVERT JUMPDEST POP POP DUP1 CALLDATALOAD SWAP3 PUSH1 0x20 SWAP1 SWAP2 ADD CALLDATALOAD SWAP2 POP JUMP JUMPDEST PUSH1 0x0 DUP3 MLOAD PUSH2 0x17A9 DUP2 DUP5 PUSH1 0x20 DUP8 ADD PUSH2 0x1968 JUMP JUMPDEST SWAP2 SWAP1 SWAP2 ADD SWAP3 SWAP2 POP POP JUMP JUMPDEST PUSH1 0x0 PUSH1 0x20 DUP3 MSTORE DUP3 MLOAD DUP1 PUSH1 0x20 DUP5 ADD MSTORE PUSH2 0x17D2 DUP2 PUSH1 0x40 DUP6 ADD PUSH1 0x20 DUP8 ADD PUSH2 0x1968 JUMP JUMPDEST PUSH1 0x1F ADD PUSH1 0x1F NOT AND SWAP2 SWAP1 SWAP2 ADD PUSH1 0x40 ADD SWAP3 SWAP2 POP POP JUMP JUMPDEST PUSH1 0x0 DUP3 NOT DUP3 GT ISZERO PUSH2 0x17F9 JUMPI PUSH2 0x17F9 PUSH2 0x19CF JUMP JUMPDEST POP ADD SWAP1 JUMP JUMPDEST PUSH1 0x0 DUP3 PUSH2 0x1819 JUMPI PUSH4 0x4E487B71 PUSH1 0xE0 SHL DUP2 MSTORE PUSH1 0x12 PUSH1 0x4 MSTORE PUSH1 0x24 DUP2 REVERT JUMPDEST POP DIV SWAP1 JUMP JUMPDEST DUP1 DUP3 JUMPDEST PUSH1 0x1 DUP1 DUP7 GT PUSH2 0x1830 JUMPI POP PUSH2 0x185B JUMP JUMPDEST DUP2 DUP8 DIV DUP3 GT ISZERO PUSH2 0x1842 JUMPI PUSH2 0x1842 PUSH2 0x19CF JUMP JUMPDEST DUP1 DUP7 AND ISZERO PUSH2 0x184F JUMPI SWAP2 DUP2 MUL SWAP2 JUMPDEST SWAP5 SWAP1 SWAP5 SHR SWAP4 DUP1 MUL PUSH2 0x1821 JUMP JUMPDEST SWAP5 POP SWAP5 SWAP3 POP POP POP JUMP JUMPDEST PUSH1 0x0 PUSH2 0x57F PUSH1 0x0 NOT DUP5 DUP5 PUSH1 0x0 DUP3 PUSH2 0x187D JUMPI POP PUSH1 0x1 PUSH2 0x57F JUMP JUMPDEST DUP2 PUSH2 0x188A JUMPI POP PUSH1 0x0 PUSH2 0x57F JUMP JUMPDEST DUP2 PUSH1 0x1 DUP2 EQ PUSH2 0x18A0 JUMPI PUSH1 0x2 DUP2 EQ PUSH2 0x18AA JUMPI PUSH2 0x18D7 JUMP JUMPDEST PUSH1 0x1 SWAP2 POP POP PUSH2 0x57F JUMP JUMPDEST PUSH1 0xFF DUP5 GT ISZERO PUSH2 0x18BB JUMPI PUSH2 0x18BB PUSH2 0x19CF JUMP JUMPDEST PUSH1 0x1 DUP5 SHL SWAP2 POP DUP5 DUP3 GT ISZERO PUSH2 0x18D1 JUMPI PUSH2 0x18D1 PUSH2 0x19CF JUMP JUMPDEST POP PUSH2 0x57F JUMP JUMPDEST POP PUSH1 0x20 DUP4 LT PUSH2 0x133 DUP4 LT AND PUSH1 0x4E DUP5 LT PUSH1 0xB DUP5 LT AND OR ISZERO PUSH2 0x190A JUMPI POP DUP2 DUP2 EXP DUP4 DUP2 GT ISZERO PUSH2 0x1905 JUMPI PUSH2 0x1905 PUSH2 0x19CF JUMP JUMPDEST PUSH2 0x57F JUMP JUMPDEST PUSH2 0x1917 DUP5 DUP5 DUP5 PUSH1 0x1 PUSH2 0x181E JUMP JUMPDEST DUP1 DUP7 DIV DUP3 GT ISZERO PUSH2 0x1929 JUMPI PUSH2 0x1929 PUSH2 0x19CF JUMP JUMPDEST MUL SWAP5 SWAP4 POP POP POP POP JUMP JUMPDEST PUSH1 0x0 DUP2 PUSH1 0x0 NOT DIV DUP4 GT DUP3 ISZERO ISZERO AND ISZERO PUSH2 0x194C JUMPI PUSH2 0x194C PUSH2 0x19CF JUMP JUMPDEST POP MUL SWAP1 JUMP JUMPDEST PUSH1 0x0 DUP3 DUP3 LT ISZERO PUSH2 0x1963 JUMPI PUSH2 0x1963 PUSH2 0x19CF JUMP JUMPDEST POP SUB SWAP1 JUMP JUMPDEST PUSH1 0x0 JUMPDEST DUP4 DUP2 LT ISZERO PUSH2 0x1983 JUMPI DUP2 DUP2 ADD MLOAD DUP4 DUP3 ADD MSTORE PUSH1 0x20 ADD PUSH2 0x196B JUMP JUMPDEST DUP4 DUP2 GT ISZERO PUSH2 0x10CC JUMPI POP POP PUSH1 0x0 SWAP2 ADD MSTORE JUMP JUMPDEST PUSH1 0x1 DUP2 DUP2 SHR SWAP1 DUP3 AND DUP1 PUSH2 0x19A8 JUMPI PUSH1 0x7F DUP3 AND SWAP2 POP JUMPDEST PUSH1 0x20 DUP3 LT DUP2 EQ ISZERO PUSH2 0x19C9 JUMPI PUSH4 0x4E487B71 PUSH1 0xE0 SHL PUSH1 0x0 MSTORE PUSH1 0x22 PUSH1 0x4 MSTORE PUSH1 0x24 PUSH1 0x0 REVERT JUMPDEST POP SWAP2 SWAP1 POP JUMP JUMPDEST PUSH4 0x4E487B71 PUSH1 0xE0 SHL PUSH1 0x0 MSTORE PUSH1 0x11 PUSH1 0x4 MSTORE PUSH1 0x24 PUSH1 0x0 REVERT INVALID LOG2 PUSH5 0x6970667358 0x22 SLT KECCAK256 0xB7 0xE3 0xB9 0xF8 PC CALL 0xEA 0xE4 SWAP2 ORIGIN 0xD2 0xB8 MUL 0xBF 0xB0 0xAA RETURNDATACOPY 0xC5 SMOD 0xEE CREATE 0xC1 DUP14 DUP5 0x2E 0x4D BALANCE PUSH9 0x3BC9392164736F6C63 NUMBER STOP ADDMOD SUB STOP CALLER ",
  "sha1": "4d3e1454cf402022e982118dfd148d40497e8ca7",
  "source": "// SPDX-License-Identifier: MIT\n\npragma solidity 0.8.3; \n\nimport '@openzeppelin/contracts/access/Ownable.sol';\nimport '@openzeppelin/contracts/token/ERC20/ERC20.sol';\nimport '@openzeppelin/contracts/token/ERC20/utils/SafeERC20.sol';\ninterface ILocker { // github.com/aurora-is-near/rainbow-token-connector/blob/master/erc20-connector/contracts/ERC20Locker.sol\n    function lockToken(address ethToken, uint256 amount, string memory accountId) external;\n} \n\ncontract QD is Ownable, ERC20 {\n    using SafeERC20 for ERC20;\n    event Mint (address indexed reciever, uint cost_in_usd, uint qd_amt);\n    // NEAR NEP-141s have this precision...\n    uint constant internal _QD_DECIMALS = 24;\n    uint constant internal _USDT_DECIMALS = 6;\n    uint constant public PRICE_PRECISION = 1e18;\n    uint constant public start_price = 22 * PRICE_PRECISION / 100;\n    uint constant public final_price = 96 * PRICE_PRECISION / 100; // 9x6 = 54\n    uint constant public MINT_QD_PER_DAY_MAX = 500_000;\n    uint constant public SALE_START = 1647388800; // EOD Ides of March in GMT\n    uint constant public SALE_LENGTH = 54 days;\n    // twitter.com/Ukraine/status/1497594592438497282\n    address constant public UA = 0x165CD37b4C644C2921454429E7F9358d18A45e14;\n    uint public constant pie = 2_700_000_000_000_000_000_000_000_000_000; \n    uint public private_price = 6 * PRICE_PRECISION / 100; // 6th sense...\n    uint public private_deposited;\n    uint public public_deposited;\n    uint public private_minted;\n    // Set in constructor and never changed\n    address immutable public lockyer; \n    address immutable public tether;\n\n    constructor(address _usdt, address _locker) ERC20(\"Qu!D\", \"QD\") {\n        private_minted = 2 * pie; // = 5.4M, full circumference...  \n        _mint(_msgSender(), private_minted); // optimistically mint\n        lockyer = _locker;\n        tether = _usdt;\n    }\n\n    function withdraw() external { // callable by anyone, and only once, after the QD offering ends\n        if (public_deposited > 0 && block.timestamp >= SALE_START + SALE_LENGTH) {\n            ERC20(tether).approve(lockyer, public_deposited);\n            ILocker(lockyer).lockToken(tether, public_deposited, \"quid.near\");\n            public_deposited = 0; \n        } \n        if (private_deposited > 0) {\n            ERC20(tether).safeTransfer(owner(), private_deposited);\n            private_deposited = 0;\n        }\n    }\n\n    function mint(uint qd_amt, address beneficiary) external returns (uint cost_in_usdt, uint aid) {  \n        if (_msgSender() == owner()) {\n            require(qd_amt == pie, \"Wrong QD amount entered\"); \n            require(private_price < start_price, \"Can't allocate any more\");\n            \n            cost_in_usdt = qd_amt * 10 ** _USDT_DECIMALS * private_price / PRICE_PRECISION / 10 ** _QD_DECIMALS; \n            private_price += 2 * PRICE_PRECISION / 100;\n            private_deposited += cost_in_usdt;\n            private_minted += qd_amt;   \n        } else {\n            require(qd_amt >= 100_000_000_000_000_000_000_000_000, \"QD: MINT_R1\"); // $100 minimum\n            require(block.timestamp >= SALE_START && block.timestamp < SALE_START + SALE_LENGTH, \"QD: MINT_R2\");\n            require(totalSupply() - private_minted <= get_total_supply_cap(block.timestamp), \"QD: MINT_R3\"); // Cap minting\n\n            cost_in_usdt = qd_amt_to_usdt_amt(qd_amt, block.timestamp); \n            aid = cost_in_usdt * 22 / 100; // 22% wartime tax to UA\n            public_deposited += cost_in_usdt - aid;\n        }\n        _mint(beneficiary, qd_amt);\n        ERC20(tether).safeTransferFrom(_msgSender(), address(this), cost_in_usdt); // reverts on failure (e.g. allowance)\n        if (aid > 0) {\n            ERC20(tether).safeTransfer(UA, aid);\n        }\n        emit Mint(beneficiary, cost_in_usdt, qd_amt);\n    }\n    function qd_amt_to_usdt_amt(uint qd_amt, uint block_timestamp) public pure returns (uint usdt_amount) {\n        uint price = calculate_price(block_timestamp);\n        // cost = amount / qd_multiplier * usdt_multipler * price\n        usdt_amount = qd_amt * 10 ** _USDT_DECIMALS * price / PRICE_PRECISION / 10 ** _QD_DECIMALS;\n    }\n    function calculate_price( uint block_timestamp) public pure returns (uint price){\n        uint time_elapsed = block_timestamp - SALE_START;\n        // price = ((now - sale_start) // SALE_LENGTH) * (final_price - start_price) + start_price\n        price = (final_price - start_price) * time_elapsed / SALE_LENGTH + start_price;\n    }\n    function get_total_supply_cap(uint block_timestamp) public pure returns (uint total_supply_cap) {\n        uint time_elapsed = block_timestamp - SALE_START;\n        total_supply_cap = MINT_QD_PER_DAY_MAX * 10 ** _QD_DECIMALS * time_elapsed / 1 days;\n    }\n    function decimals() public pure override(ERC20) returns (uint8) {\n        return uint8(_QD_DECIMALS);\n    }\n}",
  "sourcePath": "contracts/QD.sol",
  "type": "contract"
}